:020000040800F2
:1000000000000220110A00080D0A0008BD77000850
:100010000D0A00080D0A00080D0A00080000000083
:100020000000000000000000000000000D0A0008B1
:100030000D0A0008000000000D0A000841770008C2
:100040000D0A00080D0A00080D0A00080D0A000834
:100050000D0A00080D0A00080D0A00080D0A000824
:100060000D0A00080D0A00080D0A0008696400085E
:10007000756400080D0A0008816400088D6400089A
:10008000C5200108955900080D0A00080D0A00084E
:100090000D0A00080D0A00080D0A00080D0A0008E4
:1000A0000D0A00080D0A00080D0A00080D0A0008D4
:1000B000AD140108B9140108C5140108C959000894
:1000C0000D0A0008D55900080D0A00084170000803
:1000D0004D700008F91E0108251F0108591F01086D
:1000E0000D0A00080D0A0008000000000D0A0008B3
:1000F0000D0A00080D0A00080D0A00080D0A000884
:100100000D0A00080D0A0008D114010859700008F2
:100110008D1F0108C11F01080D0A00080D0A000803
:100120000D0A00080D0A00087D700008B170000873
:10013000F92001080D0A00080D0A00080D0A000840
:1001400000000000000000000000000000000000AF
:100150000D0A00080D0A00080D0A0008F51F010825
:10016000E15900080D0A000851770008757700086A
:100170000D0A0008997700080D0A00080D0A00080A
:100180000D0A00080D0A0008292001085D20010859
:1001900065700008717000080D0A00080D0A00085B
:1001A0000D0A00080D0A00080D0A00080D0A0008D3
:1001B000896100080D0A00080D0A00080D0A0008F0
:1001C0000D0A00080D0A0008FD5200080953000836
:1001D0000D0A0008155300080D0A00080D0A000852
:1001E0000D0A00080D0A00080D0A00080D0A000893
:1001F0000D0A00080D0A00080D0A00080D0A000883
:100200000D0A00080D0A00080D0A00080D0A000872
:100210000D0A00080D0A00080D0A00080D0A000862
:100220000D0A00080D0A00080D0A00080000000071
:100230000D0A00080D0A0008000000000D0A000861
:100240000D0A00080D0A00080D0A00080D0A000832
:100250000D0A00080D0A00080D0A00080D0A000822
:100260000D0A00080D0A00080D0A00080D0A000812
:100270000D0A00080D0A0008912001080000000086
:100280000D0A00080D0A00080D0A00080000000011
:08029000000000000D0A000847
:1002A00010B5054C237833B9044B13B10448AFF3B0
:1002B00000800123237010BD880600240000000088
:1002C000B87F010808B5034B1BB103490348AFF3DE
:1002D000008008BD000000008C060024B87F0108E3
:1002E00001F0FF01102A2BDB10F0070F08D010F8E7
:1002F000013B013A8B422DD010F0070F42B3F6D1EB
:10030000F0B441EA012141EA014122F007047FF003
:1003100000070023F0E80256083C85EA010586EA5A
:10032000010685FA47F5A3FA87F586FA47F6A5FA96
:1003300087F68EB9EED1F0BC01F0FF0102F00702A2
:1003400032B110F8013B013A83EA010313B1F8D14D
:100350000020704701387047002D06BF354603382E
:10036000073815F0010F07D1013015F4807F02BF67
:10037000013015F4C03F0130F0BC0138704700BFB8
:10038000034613F8012B002AFBD1181A01387047D5
:1003900081F0004102E000BF83F0004330B54FEA36
:1003A00041044FEA430594EA050F08BF90EA020FA3
:1003B0001FBF54EA000C55EA020C7FEA645C7FEA36
:1003C000655C00F0E2804FEA5454D4EB5555B8BF59
:1003D0006D420CDD2C4480EA020281EA030382EACA
:1003E000000083EA010180EA020281EA0303362D5C
:1003F00088BF30BD11F0004F4FEA01314FF4801C2F
:100400004CEA113102D0404261EB410113F0004F40
:100410004FEA03334CEA133302D0524263EB4303F7
:1004200094EA050F00F0A780A4F10104D5F1200E95
:100430000DDB02FA0EFC22FA05F2801841F10001F0
:1004400003FA0EF2801843FA05F359410EE0A5F1C4
:1004500020050EF1200E012A03FA0EFC28BF4CF0F5
:10046000020C43FA05F3C01851EBE37101F00045AB
:1004700007D54FF0000EDCF1000C7EEB00006EEBB8
:100480000101B1F5801F1BD3B1F5001F0CD3490842
:100490005FEA30004FEA3C0C04F101044FEA445299
:1004A00012F5800F80F09A80BCF1004F08BF5FEA20
:1004B000500C50F1000041EB045141EA050130BD00
:1004C0005FEA4C0C404141EB0101013C28BFB1F512
:1004D000801FE9D291F0000F04BF01460020B1FA5D
:1004E00081F308BF2033A3F10B03B3F120020CDA30
:1004F0000C3208DD02F1140CC2F10C0201FA0CF00E
:1005000021FA02F10CE002F11402D8BFC2F1200C72
:1005100001FA02F120FA0CFCDCBF41EA0C01904028
:10052000E41AA2BF01EB0451294330BD6FEA040471
:100530001F3C1CDA0C340EDC04F11404C4F120025C
:1005400020FA04F001FA02F340EA030021FA04F36E
:1005500045EA030130BDC4F10C04C4F1200220FAC5
:1005600002F001FA04F340EA0300294630BD21FA03
:1005700004F0294630BD94F0000F83F4801306BFC9
:1005800081F480110134013D4EE77FEA645C18BFBD
:100590007FEA655C29D094EA050F08BF90EA020F54
:1005A00005D054EA000C04BF1946104630BD91EA4C
:1005B000030F1EBF0021002030BD5FEA545C05D14F
:1005C0004000494128BF41F0004130BD14F580048E
:1005D0003CBF01F5801130BD01F0004545F0FE4102
:1005E00041F470014FF0000030BD7FEA645C1ABF37
:1005F000194610467FEA655C1CBF0B46024650EA6E
:10060000013406BF52EA033591EA030F41F4002199
:1006100030BD00BF90F0000F04BF0021704730B51F
:100620004FF4806404F132044FF000054FF00001F4
:1006300050E700BF90F0000F04BF0021704730B5B5
:100640004FF4806404F1320410F0004548BF40428A
:100650004FF000013EE700BF42004FEAE2014FEADF
:1006600031014FEA02701FBF12F07F4393F07F4FBA
:1006700081F06051704732F07F4208BF704793F0BD
:100680007F4F04BF41F40021704730B54FF46074D0
:1006900001F0004521F000411CE700BF50EA0102D3
:1006A00008BF704730B54FF000050AE050EA01027C
:1006B00008BF704730B511F0004502D5404261EBEC
:1006C00041014FF4806404F132045FEA915C3FF42D
:1006D000D8AE4FF003025FEADC0C18BF03325FEACA
:1006E000DC0C18BF033202EBDC02C2F1200300FA7B
:1006F00003FC20FA02F001FA03FE40EA0E0021FAA0
:1007000002F11444BDE600BF53B94AB9002908BF3D
:1007100000281CBF4FF0FF314FF0FF3000F074B9DC
:10072000ADF1080C6DE904CE00F006F8DDF804E048
:10073000DDE9022304B070472DE9F047089D044627
:100740008E46002B4DD18A42944669D9B2FA82F284
:1007500052B101FA02F3C2F1200120FA01F10CFAC0
:1007600002FC41EA030E94404FEA1C48210CBEFBF8
:10077000F8F61FFA8CF708FB16E341EA034306FB81
:1007800007F199420AD91CEB030306F1FF3080F010
:100790001F81994240F21C81023E63445B1AA4B25D
:1007A000B3FBF8F008FB103344EA034400FB07F7FF
:1007B000A7420AD91CEB040400F1FF3380F00A8140
:1007C000A74240F207816444023840EA0640E41B35
:1007D00000261DB1D4400023C5E900433146BDE8E1
:1007E000F0878B4209D9002D00F0EF800026C5E983
:1007F000000130463146BDE8F087B3FA83F6002E9B
:100800004AD18B4202D3824200F2F980841A61EB12
:10081000030301209E46002DE0D0C5E9004EDDE730
:1008200002B9FFDEB2FA82F2002A40F09280A1EB18
:100830000C014FEA1C471FFA8CFE0126200CB1FB6D
:10084000F7F307FB131140EA01410EFB03F0884266
:1008500008D91CEB010103F1FF3802D2884200F2F3
:10086000CB804346091AA4B2B1FBF7F007FB101185
:1008700044EA01440EFB00FEA64508D91CEB040423
:1008800000F1FF3102D2A64500F2BB800846A4EB7E
:100890000E0440EA03409CE7C6F12007B34022FA69
:1008A00007FC4CEA030C20FA07F401FA06F31C4398
:1008B000F9404FEA1C4900FA06F3B1FBF9F8200CA5
:1008C0001FFA8CFE09FB181140EA014108FB0EF0EB
:1008D000884202FA06F20BD91CEB010108F1FF3A3B
:1008E00080F08880884240F28580A8F10208614447
:1008F000091AA4B2B1FBF9F009FB101144EA014155
:1009000000FB0EFE8E4508D91CEB010100F1FF34FF
:100910006CD28E456AD90238614440EA0840A0FB97
:100920000294A1EB0E01A142C846A64656D353D06D
:100930005DB1B3EB080261EB0E0101FA07F722FA91
:1009400006F3F1401F43C5E9007100263146BDE8BA
:10095000F087C2F12003D8400CFA02FC21FA03F31D
:10096000914001434FEA1C471FFA8CFEB3FBF7F09E
:1009700007FB10360B0C43EA064300FB0EF69E42C3
:1009800004FA02F408D91CEB030300F1FF382FD25C
:100990009E422DD9023863449B1B89B2B3FBF7F604
:1009A00007FB163341EA034106FB0EF38B4208D9DD
:1009B0001CEB010106F1FF3816D28B4214D9023E1E
:1009C0006144C91A46EA004638E72E46284605E73C
:1009D0000646E3E61846F8E64B45A9D2B9EB02080D
:1009E00064EB0C0E0138A3E74646EAE7204694E79D
:1009F0004046D1E7D0467BE7023B614432E73046D0
:100A000009E76444023842E7704700BFFEE700BFD1
:100A10000B480C4A904203D0121A0B4914F02EFBDB
:100A20000A480B4A904203D0121A002114F04EFBE0
:100A300007F028F914F0DEFA00F062F9FEE700BFD3
:100A400000000024880600244C8001088806002449
:100A5000F06B0024704700BF704700BF32B370B521
:100A60000D46164600242DED028B114802F000FCC5
:100A70001048B0EE408A02F0FBFBF0EE408A0E48D0
:100A800002F0F6FB28686B6838EE288A00EB8400D9
:100A900003EB8403013438EE000AA64280ED000A1D
:100AA00083ED000AE1D1BDEC028B70BD704700BF41
:100AB00008100024040C002400080024034B10B587
:100AC0000446036002F0FEFC204610BD20770108BA
:100AD00030B5314C314D20462DED028B87B002F000
:100AE00039FF2046002103F049F82046202102F07A
:100AF0006DFF2046032102F049FF2046284902F0FD
:100B000041FF002104F1240004F068FB204602F0BC
:100B100059FFB0EE408A234802F022FC2248B0EE92
:100B2000480A02F01DFCB0EE480A204802F018FC0A
:100B30004FF4A070F0231E4A009028461D4901F092
:100B400029FA2846032101F051FA01F02BFD002279
:100B50000220012303218DF80D208DF80C008DF863
:100B600011109FED150A03998DF810208DF814309F
:100B70008DF815301148DDE9042304F0A3F94FF492
:100B8000FA7006F08DFE0E4807B0BDEC028BBDE892
:100B9000304004F07FBA00BFC0070024B006002434
:100BA0005D0A000808100024040C0024000800243A
:100BB00000000030000040C0000000009807002442
:100BC000A8660108F0B5414D83B02A78531EDBB208
:100BD000042B1CD83E4951F823603E490C790CB1D6
:100BE0004B6A1BBB012A14D100243B4B1A7992B1EA
:100BF0009B7A7F2B0FD10023384A1946136038485F
:100C000004F048FA03B0BDE8F04002F04FB9042602
:100C1000E3E703B0F0BD334B1A79D2B19B7A7F2B57
:100C200017D101232D4A19461360E8E72B4F59428B
:100C30002D483A680096D31A334493FBF6FC06FB22
:100C40001C333B6004F026FA2B78012BCDD0396899
:100C5000D5E7264B1A7912B19B7A7F2B2BD0244BE8
:100C60001A7912B19B7A7F2B2AD0224B1A793AB18A
:100C70009B7A7F2B04D10423184A19461360BEE7E0
:100C80001D4B1A793AB19B7A7F2B04D10523134A65
:100C900019461360B3E7194B1A793AB19B7A7F2B47
:100CA00004D106230D4A19461360A8E7002CB0D0E2
:100CB0000A4B1968A3E70223084A194613609EE706
:100CC0000323064A1946136099E700BFB8140024AD
:100CD00010680108980700245C140024B414002450
:100CE000046701086C140024C06601087C14002409
:100CF0008C1400249C1400242C1400244C14002474
:100D00002DE9F04F83B0B14CFFF7E2FEB04F01F098
:100D100021FFB04D02F0CAF8AF48B04EDFF80C83A7
:100D200004F0B8F92DE0BB7A7F2B37D1287B00285F
:100D300040F0958002F018F9337913B1B37A7F2B24
:100D40005DD002F003FA2378042B17D1A44B1B6863
:100D5000A3B92B7993B16B6A83B1A24AA2481168F7
:100D6000C91A1429B8BF1421B1F5967FA8BF4FF452
:100D70009671116004F08EF902F098F8322006F0B6
:100D800091FD01F0BDFC934804F0CCF8FFF71AFF89
:100D9000217801290ED03B79002BC4D12B7B002B6D
:100DA000CAD0A87C7F28C7D1A0F17F00B0FA80F01C
:100DB0004009BFE78D4B9B7AFF2B31D08C4B9B7A40
:100DC000FF2B35D08B4B9B7AFF2B38D08A4B9B7AED
:100DD000FF2B3CD0894B9B7AFF2B7DD0884B9B7A95
:100DE000FF2B00F08180874B9B7AFF2BD3D1864865
:100DF000062102F09FFA854804F04CF9CBE7D8F8B9
:100E00002020D8F81830013A93422AD0227803F8EB
:100E1000012BC8F818300523237002F047F890E73B
:100E20000021794802F086FA794804F033F9B2E7F4
:100E3000754802F07FFA774804F02CF9ABE70221FD
:100E4000714802F077FA744804F024F9A3E703210B
:100E50006D4802F06FFA714804F01CF99BE7A87C1A
:100E6000A2E7D8F82490D8F81410D8F81C20A9EBE1
:100E7000010A9B1AD8F810204FEAAA0C0CF1FF3097
:100E800003EB4023D8F80800121A13446FF0004215
:100E9000934200F09880D8E90002A9EB0003A2EB8E
:100EA000A303012B28D94FF4007013F051FED8F89A
:100EB000243094F800C0C9F8040004331A68D8F844
:100EC000181081F800C002F50071C8F82430C8F885
:100ED0002010C8E906229EE704214B4802F02AFAB6
:100EE0004F4804F0D7F856E70521474802F022FAA8
:100EF0004C4804F0CFF84EE70CF1020BB2EB4B0F6D
:100F000041D802F10209012A2CBF914409F10109DB
:100F1000B9F1005F55D24FEA890013F019FED8F8F5
:100F20002420A9EB0B0CD8F81410043203464FEA26
:100F30005C0B914200EB8B0B05D00190521A584686
:100F400014F0AAF8019BD8F80410D8F80000890022
:100F5000019313F0C6FD019BC8E90039DBF80030AE
:100F60000BEB0A09C8F814B0C8F80C3003F500738D
:100F7000C8F810305BF80A30C8F81C3003F500736D
:100F8000C8E908398FE7A2EB0B0B4FEA5B0B00EBCC
:100F90008B0B594508D909F104029142DED0521A4F
:100FA000584614F079F8D9E709F104094945D5D034
:100FB000A9EB01020AF10400801A584414F06CF8FD
:100FC000CCE713F0D9FD184813F0DCFDB814002469
:100FD0001C14002498070024246701080C14002422
:100FE000B414002404000024FC6701085C140024ED
:100FF0006C1400247C1400248C1400249C14002401
:101000002C1400244C14002408100024B467010898
:101010003C670108506701086467010878670108A8
:101020008C670108A0670108CC670108DC14002464
:10103000064B10B50446036002F044FA40F2044146
:10104000204613F04EFD204610BD00BF207701085A
:1010500038B5344802F05EF9334A3449314813F068
:101060003BFD334802F056F92F4A3049304813F01F
:1010700033FD304802F04EF92B4A2C492D4813F02D
:101080002BFD00232C48284A2C490360436103624E
:10109000C36313F021FD2A4B03F132011A462A20C3
:1010A00002F8050B8A42FAD1254A05322B208A42E2
:1010B00082F82D00F9D123492C2283F8642003F211
:1010C00001638B42F8D1204B002208244FF60B71AC
:1010D00002204FF0FF351A601A6298625A66C3F810
:1010E000DC201A48C3E906424FF07F44C3E90B12E3
:1010F000C3E91012C3E90D22C3E91222C3E9152284
:10110000C3E91722C3E93322C3E935221049C3E9F1
:10111000385400F0A1FF044A0E490F48BDE838409A
:1011200013F0DABC0810002400000024BD0A0008F7
:10113000040C002400080024C0070024590A0008F9
:10114000000000300A3C0030B0060024A406002451
:1011500024680108550A0008980700242DE9F04F7B
:1011600000F1400683B005461123304600218DF87A
:10117000073004F0C7F901220DF107016423284666
:1011800006F0C4F9782006F08BFB132330460021CB
:101190008DF8073004F0B6F901220DF10701642340
:1011A000284606F0B3F936233046002100278DF893
:1011B000073004F0A7F9642301220DF10701284646
:1011C0004FF00A0806F0A2F9304601218DF80770A9
:1011D00004F098F901220DF10701642328464FF02D
:1011E000C00906F093F9B623394630468DF807302A
:1011F00004F088F9642301220DF10701284606F066
:1012000085F9304601218DF8078004F07BF9012231
:101210000DF10701642328460C2406F077F9822398
:10122000304601218DF8073004F06CF901220DF1F0
:1012300007016423284606F069F9B0233946304691
:101240008DF8073004F05EF9642301220DF10701E7
:10125000284606F05BF9304601218DF8077004F04E
:1012600051F9642301220DF1070128464FF0330A9A
:1012700006F04CF9304601218DF8079004F042F950
:1012800001220DF10701642328464FF00E0B06F0F2
:101290003DF93A23394630468DF8073004F032F9EB
:1012A00001220DF107016423284606F02FF955238A
:1012B000304601218DF8073004F024F901220DF1A8
:1012C00007016423284606F021F9404606F0E8FAB3
:1012D000B223394630468DF8073004F013F9642301
:1012E00001220DF10701284606F010F930460121D0
:1012F0008DF8074004F006F9642301220DF107017F
:10130000284606F003F9304601218DF8074004F025
:10131000F9F8642301220DF10701284606F0F6F8DA
:10132000304601218DF8077004F0ECF864230122A7
:101330000DF10701284606F0E9F8304601218DF845
:1013400007A004F0DFF8642301220DF1070128460D
:1013500006F0DCF8304601218DF807A004F0D2F841
:1013600001220DF10701642328464FF0280A06F0F8
:10137000CDF8B723394630468DF8073004F0C2F86F
:1013800001220DF107016423284606F0BFF835233A
:10139000304601218DF8073004F0B4F801220DF138
:1013A00007016423284606F0B1F8BB2339463046CE
:1013B0008DF8073004F0A6F8642301220DF107012F
:1013C000284606F0A3F8304601218DF807A004F066
:1013D00099F8642301220DF10701284606F096F8DA
:1013E000394630468DF8079004F08CF864230122CA
:1013F0000DF1070128464FF0D00906F087F8304676
:1014000001218DF8074004F07DF801220DF107015C
:1014100064232846012406F079F8C2233946304671
:101420008DF8073004F06EF8224664230DF10701B1
:10143000284606F06BF8214630468DF8074004F048
:1014400061F822460DF107016423284606F05EF894
:10145000FF23214630468DF8073004F053F822462A
:101460000DF107016423284606F050F8C3233946DE
:1014700030468DF8073004F045F822460DF107019B
:101480006423284606F042F81023214630468DF8A2
:10149000073004F037F822460DF10701642328468F
:1014A00006F034F8C423394630468DF8073004F08E
:1014B00029F822460DF107016423284606F026F894
:1014C0002023214630468DF8073004F01BF82246D1
:1014D0000DF107016423284606F018F8C6233946A3
:1014E00030468DF8073004F00DF822460DF1070163
:1014F0006423284606F00AF80F23214630468DF86B
:10150000073003F0FFFF224664230DF10701284650
:1015100005F0FCFF394630468DF8079003F0F2FFE6
:1015200022460DF107016423284605F0EFFFA423AE
:10153000214630468DF8073003F0E4FF22460DF1D6
:1015400007016423284605F0E1FFA1232146304628
:101550008DF8073003F0D6FF22460DF10701642312
:10156000284605F0D3FFE023394630468DF8073092
:1015700003F0C8FF224664230DF10701284605F059
:10158000C5FF214630468DF8079003F0BBFF224689
:1015900064230DF10701284605F0B8FF21463046C7
:1015A0008DF8077003F0AEFF22460DF107016423AA
:1015B000284605F0ABFF4FF00203214630468DF878
:1015C000073003F09FFF642322460DF107012846F0
:1015D00005F09CFF4FF00702214630468DF80720AA
:1015E00003F090FF224664230DF10701284605F021
:1015F0008DFF214630468DF8078003F083FF224699
:1016000064230DF10701284605F080FF214630468E
:101610008DF807A003F076FF22460DF10701642341
:10162000284605F073FF3223214630468DF80730F7
:1016300003F068FF22460DF107016423284605F0F8
:1016400065FF4423214630468DF8073003F05AFFEA
:1016500022460DF107016423284605F057FF422377
:10166000214630468DF8073003F04CFF22460DF13D
:1016700007016423284605F049FF0623214630462A
:101680008DF8073003F03EFF224664230DF1070179
:10169000284605F03BFF214630468DF807B003F0A1
:1016A00031FF22460DF107016423284605F02EFF85
:1016B0001223214630468DF8073003F023FF2246DF
:1016C0000DF107016423284605F020FF142321466D
:1016D00030468DF8073003F015FF224664230DF1E4
:1016E0000701284605F012FF4FF0170130468DF82C
:1016F0000710214603F006FF0DF107002246642380
:101700000146284605F002FFE123394630468DF8B0
:10171000073003F0F7FE0DF107002246642301466F
:10172000284605F0F3FE214630468DF8079003F079
:10173000E9FE0DF10700224664230146284605F024
:10174000E5FE214630468DF8077003F0DBFE0DF113
:101750000700224664230146284605F0D7FE4FF0D5
:101760000203214630468DF8073003F0CBFE0DF121
:101770000700642322460146284605F0C7FE4FF0C5
:101780000702214630468DF8072003F0BBFE0DF11D
:101790000700224664230146284605F0B7FE21468D
:1017A00030468DF8078003F0ADFE0DF107002246AC
:1017B00064230146284605F0A9FE214630468DF8EF
:1017C00007A003F09FFE0DF10700224664230146A7
:1017D000284605F09BFE3123214630468DF8073020
:1017E00003F090FE0DF10700224664234FF021081C
:1017F0000146284605F08AFE5423214630468DF8DE
:10180000073003F07FFE0DF10700224664230146F6
:10181000284605F07BFE4723214630468DF80730E9
:1018200003F070FE0DF107002246642301462846AE
:1018300005F06CFE214630468DF807B003F062FEDD
:101840000DF10700224664230146284605F05EFE9E
:101850001C23214630468DF8073003F053FE0DF16E
:101860000700224664230146284605F04FFE4FF04C
:10187000170130468DF80710214603F043FE22463B
:101880000DF107016423284605F040FE1B23214685
:1018900030468DF8073003F035FE22460DF1070182
:1018A0006423284605F032FE1E23214630468DF87B
:1018B000073003F027FE22460DF107016423284676
:1018C00005F024FE2A23394630468DF8073003F010
:1018D00019FE224664230DF10701284605F016FE85
:1018E000214630468DF8077003F00CFE2246642333
:1018F0000DF10701284605F009FE214630468DF816
:10190000077003F0FFFD224664230DF1070128460E
:1019100005F0FCFD214630468DF8077003F0F2FD1E
:1019200022460DF107016423284605F0EFFDEF2361
:10193000214630468DF8073003F0E4FD22460DF1D4
:1019400007016423284605F0E1FD2B233946304684
:101950008DF8073003F0D6FD224664230DF1070110
:10196000284605F0D3FD214630468DF8077003F078
:10197000C9FD224664230DF10701284605F0C6FD86
:10198000214630468DF8077003F0BCFD22466423E3
:101990000DF10701284605F0B9FD214630468DF8C6
:1019A000074003F0AFFD22460DF1070164232846EE
:1019B00005F0ACFD3F23214630468DF8073003F09B
:1019C000A1FD224664230DF10701284605F09EFD86
:1019D000394630468DF8078003F094FD2246642393
:1019E0000DF10701284605F091FD394630468DF886
:1019F000078003F087FD22460DF107016423284686
:101A000005F084FD782005F04BFF29233946304648
:101A10008DF8073003F076FD642322460DF10701AF
:101A2000284605F073FD782003B0BDE8F04F05F0BF
:101A300037BF00BF254B1A889B882DE9F041002550
:101A400082B001268280038100F14008032708222A
:101A50001F4B044682613246C58045814661196844
:101A60002B46C0E90355C0E90766C0E90955404661
:101A7000009703F055FC0097164A04F12C072B46FB
:101A800011683846324603F04BFC3146404603F0BD
:101A900039FD3146384603F035FD211D204605F05D
:101AA000ADFC2946384603F02DFD322005F0F8FE46
:101AB0003146384603F026FD322005F0F1FE20467F
:101AC00002B0BDE8F041FFF749BB00BF0C6601085A
:101AD000CC700108C870010870B500F1400682B0F2
:101AE000362304460D46304600218DF8073003F0BA
:101AF00009FD642301220DF10701204605F006FDD2
:101B0000032D11D8DFE805F01A161202A0230121D7
:101B100030468DF8073003F0F5FC642301220DF107
:101B20000701204605F0F2FC02B070BDC02330462C
:101B30000121EEE7602330460121EAE70023304629
:101B40000121E6E7B0F8D2300121D0F8CC2003EB38
:101B50008303333370B5D51882B00446064E403047
:101B600003F0D0FC0023042229462046019400966D
:101B700005F0D6FC02B070BD551C0008B0F8D2309C
:101B800001339BB2092B88BF002370B5A0F8D23077
:101B900082B0B0F8D4300446013B9BB2A0F8D430F8
:101BA0001BB980F8D63002B070BDB0F8D230002139
:101BB000D0F8CC20403003EB8303074ED51803F058
:101BC000A1FC00230122294620460194009605F03D
:101BD000A7FC02B070BD00BF1D1C0008B0F8D230D9
:101BE0000121D0F8CC2070B503EB430582B0044648
:101BF000094E03EB452340306533D51803F082FCD2
:101C000000234FF4C062294620460194009605F057
:101C100087FC02B070BD00BF7D1B0008B0F8D23059
:101C20000121D0F8CC2003EB83030B4470B5D51809
:101C300082B00446064E403003F064FC00230422C8
:101C4000294620460194009605F06AFC02B070BD5A
:101C5000911C0008B0F8D2300021D0F8CC2070B52B
:101C600003EB430582B00446084E03EB45234030A6
:101C70006433D51803F046FC002301222946204690
:101C80000194009605F04CFC02B070BDDD1B00080D
:101C9000B0F8D2300021D0F8CC2003EB83033233EC
:101CA00070B5D51882B00446064E403003F02AFCC9
:101CB00000230122294620460194009605F030FCBD
:101CC00002B070BD451B00082DE9F043BDF81C8033
:101CD000089F42454AD8461CB7F85C00D7F854C064
:101CE0008142B7F85E5045D3441E95421FFA84F9ED
:101CF00043D8013DADB200FB05F5834209EB050E6B
:101D00000CEBCE0E34D3013884B225440CEBC50560
:101D1000AE4527D8A4EB0904351DB01C0EF1080E02
:101D200024F0604405EB44051EF806CC02301EF892
:101D3000079C0EF1080E2CF0070C85424CEA591C4A
:101D400000F804CC1EF80FCC1EF8109C4FEACC0C07
:101D50002CF01F0C4CEAD90C00F803CCE4D1013470
:101D600006EB4406013292B29045B5D2BDE8F0834D
:101D70001C46CAE795428946BBD91546BBE700BF5A
:101D8000F0B5044683B062B6B0F8643001F1FF3EAE
:101D9000B0F8D0C00F0A9E44D0F8CC300CEB8C0CBD
:101DA000B0F866609C441FFA8EF3CEF3072E8CF8D1
:101DB00002108CF801708CF803E002F1FF3E8CF801
:101DC0000430B0F8D0C0B644D0F8CC50100A0CEBB8
:101DD0008C0CAC448CF833001FFA8EF0CEF3072E37
:101DE0008CF834208CF836008CF835E0CDE900040E
:101DF000B4F8D0C0D4F8CC000CEB4C050CEB452C5F
:101E00000CF1640C6044FFF75FFFB4F8D0300120A0
:101E100001339BB2092B88BF0023A4F8D030B4F85B
:101E2000D4300344A4F8D43003B0F0BD2DE9F0431E
:101E3000002583B0044600F1670803E00135ADB228
:101E4000642D4FD018F8013F002BF7D0284B00220B
:101E5000B4F86460A3FB0513B4F8667088F800203A
:101E6000DB0817FB03F703EB8302A5EB4202BFB2CB
:101E700016FB02F6B6B203E062B6012005F018FDCB
:101E800072B6B4F8D4303A4631462046092BF3D81E
:101E9000FFF776FF0028F0D072B6B4F8D43023B341
:101EA00094F8D6600EBB62B6B4F8D2304FF0010998
:101EB000D4F8CC70314603EB830304F140000135C4
:101EC00084F8D6901F4403F01DFBDFF828C0ADB2A4
:101ED00033464A4639462046CDE900C405F020FB8A
:101EE000642DAFD103B0BDE8F08362B6A6E700BFB2
:101EF000CDCCCCCC1D1C00082DE9F047B0F85E908D
:101F00000446476DB9F1000F38D0B0F85C000026E8
:101F100000F1FF3833461FFA88F808F101084FEA4C
:101F2000C80838B3B4F866E00021B4F8645007F18B
:101F300008028C46B3FBFEF303EB83034FEA430E28
:101F40001FFA8EFE013108324FF0000ABCFBF5F398
:101F500073441FFA81FC02F80EAC9BB2844502F870
:101F60000FAC03F1680302F810AC234442F80C3CB8
:101F7000E8D347440136B3B29945D2D804F168009A
:101F80006422012113F0A2F82046BDE8F047FFF7D4
:101F90004DBF00BF2DE9F04104461D461746BDF870
:101FA00018608846FFF746FD0F4B2046A4F85C50AA
:101FB000A4F85850A3FB0525A3FB0623ED08C4F89D
:101FC0005480DB08C4F8CC70A4F85E60A4F85A60B2
:101FD000A4F86450A4F86050A4F86630A4F8623005
:101FE000BDE8F041FFF788BFCDCCCCCC38B590F838
:101FF000D63004460D4633B1012005F051FC94F86B
:10200000D630002BF8D129462046FFF765FD032D79
:1020100021D8DFE805F017021702B4F85800B4F829
:102020005A10B4F86020B4F86230A4F85E0020467C
:10203000A4F85C10A4F86620A4F86430BDE8384029
:10204000FFF75ABFA26D2046236EE2656366BDE8C6
:102050003840FFF751BF38BD10B5B1F80AE04FF076
:10206000000C0B890EF1010E4A680160AEEB030E05
:102070004260A0F808C01FFA8EF3B3B102EBC30EA2
:10208000644603E090F9094090F908C092F90610FF
:10209000083212F8053C0B445BB2A342C8BF43723E
:1020A0006145B8BF01727245ECD110BD2DE9F04F0A
:1020B000002B83B0BDF9307004DA9BB219445B4247
:1020C00089B21BB2002F04DABFB23A447F4292B207
:1020D0003FB21744BA4245DAB0F85C900B44B0F80E
:1020E0005EA009F1FF389BB2466D1FFA88F89DF893
:1020F00034509DF83540494534BF8B46C3464B4567
:1021000038BF98460AF1FF339DF836E09BB2019341
:102110000199924588BF114609FB01F10BEB0103C0
:10212000414406EBC30306EBC101994216D90139BC
:1021300003F11000C91A083321F00701014453F8D4
:10214000040C083303F8105C4FF0010C03F80F4C3B
:1021500003F80EEC994280F800C0F0D1013292B23F
:10216000BA42D5DB03B0BDE8F08F00BF2DE9F04FD8
:10217000A3EB010E85B00FFA8EFEBDF838909DF8E6
:102180003C60A9EB020CBEF1000F9DF83D500FFA28
:102190008CFC9DF83E40C0F28C8014BF01270027C4
:1021A000BCF1000F48DB14BF4FF001084FF00008EE
:1021B000BCF1000F49D18B4202D20F4619463B4673
:1021C000B0F85CC0476D6145B0F85E0002D30CF119
:1021D000FF3189B2824201D3421E92B20CFB02123D
:1021E000634507EBC20202D30CF1FF339BB281457A
:1021F00002D301381FFA80F90CFB093307EBC30740
:10220000974214D9D34302F1100108323B4423F022
:1022100007030B4452F8041C083202F8106C01202A
:1022200002F80F5C02F80E4C93420870F2D105B030
:10223000BDE8F08F4FF0FF37A2EB090C4FF0FF38ED
:102240000FFA8CFCBCF1000FB5D0BEF1000F3FD1EE
:10225000914502D217464A46B946B0F85C70D0F8AC
:1022600054C0B942B0F85E0001D3791E89B28242EF
:1022700001D3421E92B207FB0212BB420CEBC20218
:1022800001D37B1E9BB2814580F09A8007FB093900
:102290000CEBC9099145CAD9F800536801211670A1
:1022A00055709470024419704A45F6D305B0BDE8E4
:1022B000F08FA1EB030EBCF1000F0FFA8EFEB9DB1D
:1022C00014BF4FF001084FF000084FF0FF376FE7E1
:1022D000F4453CDCCEEBCE7992464FEA4C0CCEF185
:1022E000000E4FEA490207EB0309494503929ED0CD
:1022F0005246B0F85CB09A46CDE90145039C00E037
:1023000019468BB25B4593B215D2B0F85E909945F1
:1023100011D999468BB2029D0BFB0939436D03F825
:10232000396003EBC9034FF001095D70019D9D7099
:102330005B6883F800901EEB0C0E01D44244A64467
:102340008A4507EB0103DBD105B0BDE8F08FCCEB8C
:10235000CC73CCF1000C4FEA4E0E5B00039309EBFB
:1023600008039A423FF463AFB0F85CB0CDE9014591
:10237000039C8BB25B4593B215D2B0F85EA09A4530
:1023800011D99A468BB2029D0BFB0A3A436D03F8B2
:102390003A6003EBCA034FF0010A5D70019D9D7026
:1023A0005B6883F800A01CEB0E0C01D43944A444F4
:1023B00008EB020391451A46DBD105B0BDE8F08F6A
:1023C00001381FFA80F961E7F0B5002B85B00D46A2
:1023D0001446BDF928602ADB0B44002E9FB22BDB8C
:1023E0002644B6B20B9B22462946039001933B46F6
:1023F0000094FFF7BBFE0B9B2246394603980193DE
:102400003B460096FFF7B2FE0B9B394632460398D7
:1024100001932B460096FFF7A9FE2B46324629462C
:1024200003980A9405B0BDE8F040FFF79FBE194439
:10243000002E2F468DB2D3DAA31926469CB2D1E7DF
:102440002DE9F04FD0F8DC408BB0D4E900351C8981
:10245000091B1C6805EBC10635F8313004EB030E8F
:10246000E15CF3780996002B7FD096F90650013B8A
:10247000B0F8DA400EF1010EB0F85C804FF0000CBD
:102480002544B0F8D840B0F85E70ADB20894029719
:1024900055FA83F39BB2069396F90530B678234438
:1024A00008F1FF3405969BB2A4B2434528BF2346EA
:1024B0000493731EDBB2DB0007937B1E9BB2039376
:1024C000436D0193DDE90243A54238BF2B46049CCE
:1024D00008FB0343019C04EBC303059C002C3DD087
:1024E000079C10341C44083311E00CF1010C490026
:1024F00076465FFA8CFCC9B2BCF1070F04D916F816
:10250000011B4FF0000CB6460833A34226D00E063E
:10251000EBD54FF001094F4682B190F8E4B090F846
:10252000E5A090F8E67053F8046C03F808BC03F8D3
:1025300007AC03F8067C86F80090D6E790F8E0B088
:1025400090F8E1A090F8E29053F8046C03F808BC0E
:1025500003F807AC03F8069C3770C6E7069C6B1CB3
:10256000A5429BB204D01D46ACE7B0F8D830089322
:10257000099B089A1B791A44A0F8D8200BB0BDE833
:10258000F08F00BF38B50C46097839B115462A4698
:10259000FFF756FF14F8011F0029F8D138BD00BF1E
:1025A000704700BF10B51C2000242DED028B8CB0AD
:1025B0009FED488A01F0D0F90123ADF80800B0EE94
:1025C000480A1A4602994448009402F087FD1B20ED
:1025D00001F0C2F90123ADF80C00B0EE480A1A462A
:1025E00003993E48009402F079FD1A2001F0B4F9F5
:1025F0000123ADF81000B0EE480A1A460499384895
:10260000009402F06BFD204601F0A6F90123ADF81D
:102610001400B0EE480A1A4605993248009402F0B8
:102620005DFD012001F098F90123ADF81800B0EE2E
:10263000480A1A4606992C48009402F04FFD0220E1
:1026400001F08AF90123ADF81C00B0EE480A1A46E1
:1026500007992648009402F041FD032001F07CF91F
:102660000123ADF82000B0EE480A1A460899204828
:10267000009402F033FD042001F06EF90123ADF85F
:102680002400B0EE480A1A4609991A48009402F04C
:1026900025FD052001F060F90123ADF82800B0EE1A
:1026A000480A1A460A991448009402F017FD0620B9
:1026B00001F052F90123ADF82C00B0EE480A0F48A2
:1026C0001A460B99009402F009FD0CB0BDEC028B88
:1026D00010BD00BF00007A440C1400241C14002418
:1026E0003C1400245C1400246C1400247C1400248A
:1026F0008C1400249C1400242C1400244C1400245A
:1027000008B5104802F03AFD0F4802F037FD0F48B7
:1027100002F034FD0E4802F031FD0E4802F02EFDAD
:102720000D4802F02BFD0D4802F028FD0C4802F088
:1027300025FD0C4802F022FD0B48BDE8084002F0E0
:102740001DBD00BF0C1400241C1400243C140024E4
:102750005C1400246C1400247C1400248C140024C9
:102760009C1400242C1400244C14002438B51B4D58
:102770001B4C2A461B48214612F0AEF92A46214638
:10278000194812F0A9F92A462146184812F0A4F96E
:102790002A462146164812F09FF92A462146154836
:1027A00012F09AF92A462146134812F095F92A4662
:1027B0002146124812F090F92A462146104812F09C
:1027C0008BF92A4621460F4812F086F92A462146FF
:1027D0000D48BDE8384012F07FB900BF000000246A
:1027E000A12500080C1400241C1400243C1400240F
:1027F0005C1400246C1400247C1400248C14002429
:102800009C1400242C1400244C14002470B506469B
:10281000006888B1756A74690435AC4208D254F80E
:10282000040B4FF4007112F05CF9A542F7D8306840
:102830007168890012F055F9304670BD2DE9F843F2
:1028400001273C260025234CDFF89C80DFF89C9074
:10285000D9F800300A22A4F8DA60AB42C4F8DC8070
:102860004FF0FF03A4F8D8201BD019464FF6FF7293
:10287000022D84F8E010A4F8E2204FF0000284F862
:10288000E13021D0032D144912480DD0012D15D06F
:10289000FFF778FE042F0CD01E3601350137B6B293
:1028A000D6E7C8230021E1E700220C490948FFF7D9
:1028B00069FE0848BDE8F843FFF7B8BA00220849A6
:1028C0000448FFF75FFEE7E706490248FFF75AFEB4
:1028D000E2E700BFB0060024287301086073010816
:1028E0003873010848730108A4060024B4140024B6
:1028F0002DE9F04FDFF89CE193B04FF6B7745F25F8
:102900000DF10C0C4FF0010B0026DFF88C81BEE8B6
:102910000F00ACE80F009EE807008CE807002AE0F3
:102920008DF828E07A228DF829E022238DF82AE01C
:1029300029468DF82BE00A9FCDF800900197FFF70C
:10294000B5FB2A464FF0220E4FF07A0CD8F8003033
:1029500012A9062B01EB830103DC51F83C3CB34286
:102960002BD0BBF1070F45D025352C3401360BF1A8
:10297000010BADB2A4B2032E4FF0FF0E4FF0230AAD
:102980004FF0350921464FF028034FF054023A48E2
:10299000C6D98DF828E08DF829E08DF82AE08DF869
:1029A0002BE00A9FCDF800A00197FFF70DFD22460E
:1029B0004FF0280E4FF0540CC8E7911C032E4FF037
:1029C0000009AEF1040308460CF1020289B23BDCB7
:1029D000C8208DF828908DF82900FF208DF82A0056
:1029E0008DF82B000A980190312000902248FFF7C3
:1029F0005DFBB9E7D8F800201624204B072A2048B1
:102A00001B68A8BF00221F4903EB430304FB0233EA
:102A100050F82220184C0AA813441B4A01EB8303E8
:102A2000C4F8D82019494FF0FF325B68C4E9371267
:102A3000174A1E2112F0CAFC00220AA92046FFF7FD
:102A4000A1FD13B0BDE8F08F81B2FF208DF8289072
:102A5000AEF104038DF82A000CF102028DF82B0070
:102A6000C8208DF829001F2000900A980190024884
:102A7000FFF71CFB75E700BFB0060024B01400246C
:102A8000C01400247C7401086400C800A40600245B
:102A90007073010814660108B4140024F0B5002511
:102AA0008FB0FF27244E8DF81C50F0238DF81D5059
:102AB00029468DF81E5030468DF81F70079A0093F6
:102AC0004FF4A07301922A46FFF7F0FA1B4CFFF770
:102AD0000FFF1B4B0EAA0DF11C0C1B6802EB830EA3
:102AE0000FCCACE80F0094E807008CE80700154A0B
:102AF00014215EF81C3C02A812F068FC124B02A9DB
:102B00000022C6F8D830114B0B48C6F8DC30104B09
:102B10001B68072B4FF6FF7314BF3D46C827A6F866
:102B2000E23086F8E05086F8E170FFF72BFD0248AE
:102B3000FFF77CF90FB0F0BDB00600243066010845
:102B4000B01400247C73010873003C00A406002428
:102B5000B414002400231B4A1B481C4910B51370F1
:102B60001B4C1C4A03600B60A0691360A36883427E
:102B700005D11AE00138A3689842A06115D0E36935
:102B80008342F7D14FF4007111F0ABFF636A53F841
:102B9000042C043B02F2FF106362A36802F500718B
:102BA000A0619842C4E90721E9D100230A4A0B49F0
:102BB00093610B60C2E90033C2E90233C2E9043316
:102BC00010BD00BFB8140024B4140024AC140024B9
:102BD000DC140024BC140024C0140024B01400240D
:102BE0002DE9F043002289B0FF21F0208DF80C2060
:102BF0004FF4A0738DF80D2016468DF80E203C255D
:102C00008DF80F100399214CDFF88490DFF8848051
:102C1000CDE9000111461D48FFF748FADFF878E0DA
:102C20000DF10C0CBEE80F006746ACE80F00DEF8B3
:102C30000030CCF80030D8F800300A22A4F8DA507E
:102C4000B342C4F8DC904FF0FF03A4F8D82019D0A9
:102C50009E464FF6FF7C0136002257F8041B0B48B6
:102C60001E3584F8E0E084F8E130ADB2A4F8E2C0AB
:102C7000FFF788FC052EDED1044809B0BDE8F0431B
:102C8000FFF7D4B8C8234FF0000EE2E7B0060024E7
:102C9000A4060024B41400244C6601082DE9F04376
:102CA000002185B0FF22F0248DF80C104FF4A073A2
:102CB0008DF80F200A468DF80D1001278DF80E10A3
:102CC0003C2603980D46DFF89890DFF89880CDE910
:102CD00000401F4C2046FFF7E9F9D8F800301E22CB
:102CE000A4F8DA60AB42C4F8DC904FF0FF03A4F81C
:102CF000D82019D019464FF6FF72012D84F8E01044
:102D0000A4F8E2204FF0000284F8E1301AD0022D3E
:102D100010490F480BD0FFF735FC032F0CD01E369F
:102D200001350137B6B2D8E7C8230021E3E7002216
:102D300009490748FFF726FC054805B0BDE8F04300
:102D4000FFF774B805490248FFF71CFCE7E700BF2E
:102D5000B006002484730108A07301089073010871
:102D6000A4060024B41400242DE9F043002185B00A
:102D7000FF22F0248DF80C104FF4A0738DF80F2073
:102D80000A468DF80D1001278DF80E103C26039889
:102D90000D46DFF8AC90DFF8AC80CDE90040234C65
:102DA0002046FFF783F9D8F800301E22A4F8DA6035
:102DB000AB42C4F8DC904FF0FF03A4F8D8201BD03E
:102DC00019464FF6FF72022D84F8E010A4F8E220B5
:102DD0004FF0000284F8E1301FD0032D144913484E
:102DE00013D0012D0BD0FFF7CDFB042F1AD01E36C8
:102DF00001350137B6B2D6E7C8230021E1E700224A
:102E00000C490A48FFF7BEFBF1E700220A490748D0
:102E100005B0BDE8F043FFF7B5BB08490348FFF72D
:102E2000B1FBE4E705B0BDE8F08300BFB0060024C5
:102E3000AC730108C0730108E4730108D073010882
:102E4000A4060024B414002430B5FF2385B0002468
:102E5000114D8DF80F30F0208DF80C4022468DF882
:102E60000D404FF4A0738DF80E400399CDE9000199
:102E700021462846FFF71AF9084809492246094B16
:102E8000C5E9360108492846C5F8E03005B0BDE877
:102E90003040FFF777BB00BFB00600241E003C00A7
:102EA000A406002400C8FFFFF873010810B52A4BE0
:102EB00084B02A4C1A682A48217802F0EBF80022E4
:102EC000FF234FF4A0708DF80C208DF80F30F02305
:102ED0008DF80D208DF80E200399CDE900011146E3
:102EE0002048FFF7E3F82378052B06D8DFE803F046
:102EF0000B131B232B03FFF7A7FF1A4804B0BDE8F1
:102F00001040FEF793BFFFF799FC164804B0BDE8E8
:102F10001040FEF78BBFFFF7C1FD124804B0BDE8BB
:102F20001040FEF783BFFFF75BFE0E4804B0BDE81C
:102F30001040FEF77BBFFFF7B1FE0A4804B0BDE8C2
:102F40001040FEF773BFFFF70FFF064804B0BDE85F
:102F50001040FEF76BBF00BFB4140024B814002467
:102F600008740108B006002418B32DE9F8436D4B2E
:102F70001A7BE2B19B7C7F2B19D16B4C2178012904
:102F80005DD011D8694D2A6AAB69013A934227D0C6
:102F9000002203F8012BAB61654B1A68032A10D895
:102FA000DFE802F0151B180D8B1E032B02D8BDE8BD
:102FB000F88370475F48BDE8F84302F06BB804221D
:102FC000227000221A60BDE8F843FFF76FBF0122AC
:102FD0002270F6E703222270F3E702222270F0E764
:102FE000EA696FF000476E6A69699B1AA8682A69E6
:102FF000A6EB0108101A4FEAA80202F1FF3C03EB0E
:103000004C230344BB4200F08A80D5E900C0A6EB04
:103010000C03A0EBA303012B33D94FF4007011F084
:1030200097FD6B6A217870600433AA6911701A6881
:103030006B6202F50071EA61AA612962ACE73C4B60
:10304000196806290EDC3C483C4B50F8212001321F
:1030500083FB0243A3EBE27303EB4303D31A40F871
:103060002130B0E7364837490368013381FB03213B
:10307000DA171944C2EBA102C2EBC2029B1A036029
:10308000A1E7971CB0EB470F1CD9C71B321D7F0867
:103090000CEB8707B94236D9914203D0521A384611
:1030A00011F0FAFF3B6807EB08066F61EB6003F570
:1030B00000732B6157F808306E6203F50072C5E9A2
:1030C0000732AAE7861C01282CBF36180136B6F154
:1030D000005F22D2B00011F03BFDF21B696981460E
:1030E00057086A6A043200EB8707914203D0521AEC
:1030F000384611F0D1FF69682868890011F0F1FCA9
:10310000C5E90096CEE79142CCD0521A08F10400EE
:10311000801A384411F0C0FFC4E711F02DFD0A48B1
:1031200011F030FD98070024B8140024DC140024AA
:10313000B41400243C740108C0140024565555559D
:10314000B014002493244992CC670108274B1A79C4
:103150006AB39B7A7F2B2AD110B5254C84B0A06925
:10316000A368984224D0E369984227D010F8012D33
:10317000204BA0611A700022FF231F488DF80C20FD
:103180008DF80D208DF80E208DF80F30039B1B4914
:10319000B0F95E400A6011460193B0F95C300094CA
:1031A000FEF784FF04B0BDE81040FFF77FBE704714
:1031B000134804B0BDE8104001F06CBF626A4FF4E0
:1031C00000710C4B52F8042C92F8FF211A7011F088
:1031D00088FC636A53F8042C043B02F5007002F289
:1031E000FF116362A161C4E90720C4E73C14002415
:1031F000DC140024B8140024B0060024B414002405
:1032000058740108F8B50822164C0023202062608B
:103210002360C4E90233C4E90433C4E90633C4E9D2
:10322000083311F095FC656806464FF40070013DC7
:10323000266011F08DFC6D08034600F500710A4A06
:1032400006EB850746F82500A36067616762A36106
:10325000C4E90301C4E9070120460449BDE8F84078
:1032600011F03ABCDC140024000000240D280008F2
:1032700090F8FC3313B99FED240A704770B50546EA
:1032800000F571702DED028B11F04CF9DFED1F7A16
:10329000F0EE408AB4EEE70AF1EE10FA2BD4D5F83E
:1032A000003405F128049FED188A03EB431304EB67
:1032B000830404F1840620462C3411F04DFAA8EE64
:1032C000808AB442F7D1D5ED056AB7EE000AD5ED94
:1032D000097A0F4B76EEA77A93ED006A86EEA77A0D
:1032E00030EE470A20EE060AA8EE070ABDEC028B74
:1032F00083ED000A70BD00239FED030ABDEC028B35
:1033000085F8FC3370BD00BF000000006F12833AE7
:103310000415002410B5044600F0B2F80023044A56
:103320002046226084F8FC33C4F8003410BD00BF8E
:1033300020770108062903460AD84FF0010C0648F9
:10334000C3F8001483F8F8C383F8FCC301F0A2BEED
:10335000024801F09FBE00BFE47601080077010833
:103360002DE9F04706462DED028BB0EE408A06F1BE
:10337000280406F5717700F07FF886ED098A04F1DC
:103380008405B7EE007A4FF07C5300229FED350A9A
:1033900063602046C7EE087AE360A2612C3404ED36
:1033A000078A04ED090A44ED067A11F08FFB012328
:1033B00003212D4AAC4204ED040A04F82C1C04F845
:1033C000033C44F8282C04F8043C02D096ED098A0A
:1033D000D7E7A74202D096ED098AD0E7DFF89490AC
:1033E00006F1AC0506F5896A9FED200AA5F1840473
:1033F000C84684ED020A20462C3411F067FBAC422B
:1034000004ED040A02D0B8EC010AF2E7843509F1B0
:103410000C09554502D019ED010AE7E7384696ED4B
:10342000090A11F067F87268B3680021F068C6F8FD
:10343000CC23C6F8D03300230D4AC6F8D813C6F8FB
:10344000DC03C6F8E41307EE903A0133FAEEC67ACD
:10345000B3F5801FE2EC017AF5D1BDEC028BBDE83B
:10346000F08700BF0000C842CDCC4C3EA4D08243C0
:10347000000000C0BC7F010880ED090A704700BF52
:103480000D494FF0010C4FF07C5280F820C0416094
:10349000DFF82CC081600021C2600261C0F814C056
:1034A000C261416210B44FF07E548461034C0460E9
:1034B0005DF8044B704700BFCDCCCC3D3877010898
:1034C0000000FA44704700BFF0B500F1080683B071
:1034D0000660F9B1044608460D46FCF751FF0F2877
:1034E000019005EB00070BD83A462946304611F00B
:1034F00017FC019B226800216360D15403B0F0BD2A
:10350000002201A9204611F0D5FB019B0646206050
:10351000A360E9E7014811F032FB00BF48770108DA
:1035200070B58568064685B12C462D68606804F143
:103530000C03984203D0E168013111F0D2FA242142
:10354000204611F0CEFA002DEED1726800213068CD
:10355000920011F0BBFD306806F11803002271687B
:103560009842C6E9022202D0890011F0BAFA304628
:1035700070BD00BF034610B5044653F8080B9842CF
:1035800003D0A168013111F0ACFA204610BD00BF94
:103590002DE9F0479946036853F8216006B3356872
:1035A0000746884692462C6A0BE02C682E46254634
:1035B000CCB1246A7B68B4FBF3FC03FB1C4CE045F4
:1035C00015D14C45F1D1DAF80420AB689A42ECD120
:1035D00032B16968DAF8000011F040FD0028E4D14A
:1035E0003046BDE8F08726463046BDE8F087002625
:1035F0003046BDE8F08700BF2DE9F04F914600F15D
:1036000018020D46002704462DED028B87B002609C
:103610000392A9EB01029349921002FB01F1994236
:1036200038BF19464FF07E5303610123436000F118
:103630001003C0E90277C0E90577184608EE103A92
:1036400011F0A4FA6368834213D20128064600F001
:10365000FB80B0F1005F80F0FF8082001046029294
:1036600011F076FA3946029A074611F02FFDC4E9A7
:1036700000764D4505D162E00368ABB11C35A94524
:103680005DD0794AD5E9000111F02EFA616806464D
:103690002A4620463346B6FBF1F701FB1767394649
:1036A000FFF776FF0028E7D1242011F051FAD5F872
:1036B00000A06B680146002280461AEB030F41F818
:1036C0000C2B416003D0BAF1000F00F0C7800F2B24
:1036D00004933FD8012B38D19AF800200DF1100B3C
:1036E00088F80C204FF0000AC8F80830584601F856
:1036F00003A018EE101AAB69C8F81C300123009320
:10370000E368626811F08EFA9DF81030002B3AD110
:10371000D4F800A05AF827300AEB8702C8F82060D6
:10372000002B6CD01B68C8F800305AF82730C3F85B
:103730000080E3681C350133A945E360A1D1204630
:1037400007B0BDEC028BBDE8F08F0DF1100B002B24
:10375000C8D00FE00DF1100B002208F10400029315
:10376000594611F0A7FA049A0146029BC8F80400D2
:10377000C8F80C201A460846514611F07FFC049BFD
:10378000D8F80410AEE7059F012F60D0B7F1005FB5
:1037900062D2BA001046029211F0DAF95146029A4A
:1037A000824611F093FCA0680023A36088B19C4678
:1037B00002460068136AB3FBF7F107FB11335AF8AE
:1037C000231071B3096811605AF823301A60002879
:1037D000EED1039BD4E90001834202D0890011F0AD
:1037E00080F9B6FBF7F3C4E900A707FB13675AF8A3
:1037F00027300AEB8702C8F82060002B92D1A3681B
:10380000C4F80880C8F800303BB11B6A6168B3FB9C
:10381000F1F001FB10334AF8238004F10803136030
:1038200087E7A1681160214641F8082F4AF8231064
:10383000116829B14AF82C209C460028B8D1C8E765
:103840009C460028B4D1C4E7A761039F0FE7C4F8E2
:1038500018A0DDF80CA0A6E711F08EF9034811F0CE
:103860008EF900BFB76DDBB607690FC7487701084F
:103870002DE9F04F2D4FA3B0DFF8C8B02C4C3846DF
:10388000DFF8C48059462B4EFFF71EFEDFF8BCA0C0
:1038900022464146384611F01FF9274DDFF8B09017
:1038A00051463046FFF710FE22464146304611F0A1
:1038B00013F949462846FFF707FE224641462846A7
:1038C00011F00AF959460DA8FFF7FEFD514614A85C
:1038D0001397FFF7F9FD49461BA81A96FFF7F4FD69
:1038E00009AB21950DA905930AAB144D22AA0493A7
:1038F00008AB284603930BAB02930CAB019307ABC9
:1039000000930023FFF778FE1BA811F0F5F914A827
:1039100011F0F2F90DA811F0EFF9224608492846F6
:1039200023B0BDE8F04F11F0D7B800BF5800002415
:1039300000000024300000240800002408150024A2
:1039400021350008D0700108753500084071010864
:1039500048710108704700BF202882B009D8084B81
:1039600003EB400213F81030507843EA002002B015
:10397000704701230C2043EA002002B0704700BFCB
:1039800074770108143001F069BA00BF38B500F14E
:10399000140504462DED028B284601F01BFA28463B
:1039A00001F014FA2846B0EE408A01F0FDF9D0ED9E
:1039B000007AF8EE677A88EE277ABDEC028B84ED08
:1039C0000E7A38BD143001F001BA00BF38B500F1ED
:1039D000140504462DED028B284601F0E9F928462E
:1039E00001F0F4F92846B0EE408A01F0DDF9D0ED9F
:1039F000007AF8EE677A88EE277ABDEC028B84EDC8
:103A00000E7A38BD10B540F203338EB000244FF665
:103A10000B7240F20341ADF8083009A80123ADF85C
:103A20001020ADF824202246ADF80C100094029925
:103A300007940C94CDE90544CDE90A4401F070FCEB
:103A400004A8012322460399009401F069FC09A807
:103A500001F04CFD10B901200EB010BD04A801F01A
:103A600045FDA0420CBF022020460EB010BD00BF95
:103A70002DE9F04103239AB0012700240646CDE941
:103A800014373B4BCDE9104340F20453CDE91647C0
:103A9000ADF84830FFF7B6FFB842054625D00228FA
:103AA00045D040F60132334B0DF12C081894ADF897
:103AB0002C200B981997CDF84A3000F0E3F810A9A4
:103AC00006F13C0002F05CFD302003224FF07E53F3
:103AD00041460D930E93CDE90B02F26B06F11400F3
:103AE00001F02AF91AB0BDE8F0811023214A06A995
:103AF00006908DF828300DF12C081F4BCDF84A2088
:103B000007930294CDE91804CDE9080402A801F056
:103B10006DFF0823029A03A94046ADF80C508DF8BA
:103B20000E40049505930B9400F0ECF8C7E70020D5
:103B30000121104B0DF12C083A460094CDF84A3083
:103B40004FF60B730C94ADF82C302346CDE91801D9
:103B500040F601314046ADF818100699CDE90D4404
:103B600001F0DEFB2146404601F0CCFCA7E700BF98
:103B700004020404040604030704010B2DE9F047C2
:103B800004462DED028B82B000294DD0012140F278
:103B9000011200230091ADF804208DF80630364A5A
:103BA0000127364B04F10409354904F12908626004
:103BB00040F20272A36040F60663E16004F1250A58
:103BC000A4F82520A4F82930278284F8277084F8E7
:103BD0002B7004F00DF8054603F070FE69460646AA
:103BE00050BB4DB304F130008DF8067003F088FF30
:103BF000072D3CD104F114052046FFF739FF284674
:103C000001F0E4F82846B0EE408A01F0CDF8D0ED9E
:103C1000007AF8EE677A88EE277A84ED0E7A02B0A1
:103C2000BDEC028BBDE8F08740F2011300918DF8E6
:103C30000610ADF80430B2E704F1300003F060FF85
:103C4000072D11D04946204602F01AF90EB9002D71
:103C5000D0D1504601F060FC404601F05DFC04F11B
:103C6000120000F079F9C5E7002EF2D1C2E749460B
:103C7000204602F005F9BDE7050805090507050618
:103C8000050A060610B584B003460124ADF8040009
:103C900003A8ADF80C30ADF80E4001F03DFC214614
:103CA00003A801F023FD204603F0FAFD002103A83C
:103CB00001F01CFD204603F0F3FD214603A801F0AE
:103CC00015FD04B010BD00BF10B5C2F3002384B0D1
:103CD0000C46017C8DF80D2043EA4402FA240223AD
:103CE0008DF80C2003AA009401F016FF18B10124EE
:103CF000204604B010BD04460A2003F0D1FD204642
:103D000004B010BD034670B543F8042B044684B0DC
:103D100007C983E80700A37983B91A210B461E223D
:103D2000FA2523742046ADF80C20022303AA00953F
:103D300001F0F2FE28B1012004B070BD1B210B463A
:103D4000EDE70A2003F0ACFD4FF4B85200950223D2
:103D5000ADF80C20204603AA217C01F0DDFE0028EE
:103D6000E9D10A2003F09CFD41F202720095022382
:103D7000ADF80C20204603AA217C01F0CDFE0028DE
:103D8000D9D10A2003F08CFD042200950223ADF85E
:103D90000C20204603AA217C01F0BEFE0028CAD1D7
:103DA0000A2003F07DFD062200950223ADF80C20C9
:103DB000204603AA217C01F0AFFE0028BBD10A20D7
:103DC00003F06EFD41F2082200950223ADF80C20AD
:103DD000204603AA217C01F09FFE0028ABD10A20D7
:103DE000064603F05DFD0095022303AA217C2046D0
:103DF000ADF80C6001F090FE00289CD1304603F035
:103E00004FFD009522790C232046002A8DF80C30B6
:103E100003AA4FF0020314BF622142218DF80D1056
:103E2000217C01F079FE002885D1304603F038FD71
:103E30002279D4E902310B43DBB20AB943F04003E3
:103E400062790AB143F020030E22FA258DF80D3075
:103E50002046009502238DF80C2003AA217C01F056
:103E60005BFE00287FF467AF0A2003F019FD1022E3
:103E700000950223ADF80C20204603AA217C01F016
:103E80004BFE00287FF457AF0A2003F009FD1221F2
:103E900000950223ADF80C1003AA217C204601F006
:103EA0003BFE00287FF447AF0A2003F0F9FC012213
:103EB00009212046FFF708FF003818BF01203BE723
:103EC000F0B5102387B0234C0122002501260027DE
:103ED00002A920460195CDE902234FF48052CDE995
:103EE00004670AF035FB642004F0C0FC02A94FF41B
:103EF00080522046CDE9046702261027CDE90267EB
:103F00000AF026FB0322102302A92046CDE9022352
:103F100000230422CDE904234FF480520AF018FB59
:103F200040F23223042202A9019310232046CDE956
:103F30000223019A012305924FF4805204930AF060
:103F400007FB40F6060120460AF022FB284607B090
:103F5000F0BD00BF2C1500241C4B00221C494FF063
:103F6000400C30B5054689B00220596007219A609F
:103F70001A620124DA620A224FF4006EDC600692B3
:103F80002022CDE9000104200821CDE9020103200F
:103F90001021CDE9040108206946C3E904024FF469
:103FA000C072181DC3E906C24FF48052C3E909E28A
:103FB0000AF0A4FA38B92846FFF782FF003818BF84
:103FC000012009B030BD204609B030BD28150024BD
:103FD00040410052614A0021D0B513688EB00A9169
:103FE000002B40F0B9805E4B01214FF683700C240A
:103FF00011600221D3F8D4200026032742F4805216
:10400000C3F8D420D3F8D42002F480520092009A4E
:10401000D3F8E02042F01002C3F8E020D3F8E0200B
:1040200002F010020192019AD3F8E02042F040021F
:10403000C3F8E020D3F8E02002F040020292029A96
:10404000D3F8E02042F00802C3F8E020D3F8E020E3
:1040500002F008020392039AD3F8E02042F480723F
:10406000C3F8E020D3F8E02002F480720492049AAE
:10407000D3F8E02042F08002C3F8E020D3F8E0203B
:1040800002F080020592059AD3F8E02042F0200267
:10409000C3F8E020D3F8E02002F020020692069A4E
:1040A000D3F8E02042F00402C3F8E020D3F8E03077
:1040B0000C9403F0040307930323079A0B93CDE9B1
:1040C000080108A9274805F077FC48F237120223B7
:1040D00008A925480C94CDE90823CDE90A6705F025
:1040E0006BFC4CF20372022308A920480C94CDE922
:1040F0000823CDE90A6705F05FFC40F2FF62022366
:1041000008A91B480C94CDE90823CDE90A6705F0FE
:1041100053FC4FF60C72022308A916480C94CDE903
:104120000823CDE90A6705F047FC4FF63F0202235A
:1041300008A911480C94CDE90823CDE90A6705F0D8
:104140003BFC2022022308A90A480C94CDE90A6707
:10415000CDE9082305F030FC0EB0D0BD24150024B5
:10416000004402580010025800180258000C02586F
:1041700000200258001C0258001402582DE9F04F8C
:10418000DFF8108406460D46144608F118002DEDA0
:10419000028B89B000AF02F0EBFAD8F8183073B395
:1041A000D8F81C30D8F80490002B43690BBF4FF0AF
:1041B000080A4FF0100A4FF0020B4FF0040BB9F150
:1041C000000F2AD0A200EA46012B02F1070222F0DA
:1041D0000702ADEB020D6846ADEB020D694600F03B
:1041E0003F81022B00F0D680002B6FD02246C847BB
:1041F000D5462437BD46BDEC028BBDE8F08FD8F81C
:104200001C30002BF5D0D8F804904FF0080A4FF07E
:10421000020B4369B9F1000FD4D1FB61D8F800302B
:10422000BB61002BE5D0D54802F014FB6B46BBF117
:10423000020F786108EE103AFB6900F083816A464C
:104240005146A2EBC40295466200EA46B2FBFBF27D
:10425000AAEBC40085460AEB8200EE46F861ADEB9E
:10426000010DF8690EEB820CC7F810C0EC46ADEBFF
:10427000010D00EB8201CCF80400CCF8081001EB32
:1042800082013869E946CCF80C1000EB8201CCF8C9
:1042900000A001EB8202C9E900E0C9E90212012B8A
:1042A00000F06483022B00F06C82002B00F0808110
:1042B000620849466046BB69984718EE103A2437B1
:1042C0009D46BD46BDEC028BBDE8F08F002C8DD025
:1042D0001A46D8ED0C6A9FEDB27A8446331D36F942
:1042E00022E00CF1080C07EE90EA33F922E00232EA
:1042F000F8EEE77A944267EE877A67EEA67A4CED9D
:10430000027A07EE90EAF8EEE77A67EE877A67EED0
:10431000A67A4CED017AE2D8F9612246C847984E58
:10432000D8ED0D6A0020F9692B1D9FED9E7A9FED57
:104330009E6ADFED9E5A22E0F4EEC67AF1EE10FAA4
:10434000C0F2C88447F6FE72D1ED017A45F820200C
:1043500066EEA77AF4EEC77AF1EE10FA40F2F0803A
:10436000F4EEC67AF1EE10FAC0F2D58447F6FE728A
:1043700043F820200230083184427FF639AFD1ED76
:10438000007A66EEA77AF4EEC77AF1EE10FAD3D887
:104390003246D9E7002C3FF429AFD8ED0C6A8446A9
:1043A0009FED787A0022331D8E4656F822100CF1CC
:1043B000080C07EE901A53F822100232F8EEE77A52
:1043C000944267EE877A67EEA67A4CED027A07EEA2
:1043D000901AF8EEE77A67EE877A67EEA67A4CEDE8
:1043E000017AE2D871462246C7F81CE0C847664EFB
:1043F000D8ED0D6A0020F9692B1D9FED6A7A9FEDBB
:104400006A6ADFF894C120E0F4EEC67AF1EE10FAA1
:10441000C0F279843246D1ED017A45F8202066EE6B
:10442000A77AF4EEC77AF1EE10FA40F28780F4EE44
:10443000C67AF1EE10FAC0F25E84324643F82020CC
:104440000230083184427FF6D3AED1ED007A66EEB9
:10445000A77AF4EEC77AF1EE10FAD5D86246DAE719
:10446000002C3FF4C3AED8ED0C6A86469FED477A28
:104470004FF0000C331D56F82C200EF1080E82F47C
:104480000002A2F5000207EE902A53F82C200CF14E
:10449000020CF8EEE77A82F400026445A2F500020D
:1044A00067EE877A67EEA67A4EED027A07EE902ADB
:1044B000F8EEE77A67EE877A67EEA67A4EED017A34
:1044C000D9D8F9612246C847314ED8ED0D6A00208F
:1044D000F9692B1D9FED337A9FED336ADFF8BCC07D
:1044E0001FE0F4EEC67AF1EE10FAC0F2FC83324619
:1044F000D1ED017A45F8202066EEA77AF4EEC77A6E
:10450000F1EE10FA18D9F4EEC67AF1EE10FAC0F214
:10451000DA83324643F820200230083184427FF6A5
:1045200067AED1ED007A66EEA77AF4EEC77AF1EEC7
:1045300010FAD6D86246DBE76246EBE762467DE7D3
:10454000324615E7A100D6466208073121F007017F
:10455000ADEB010DEA46ADEB010D6946ADEB0E0D7D
:104560000AEB8200EC46ADEB0E0D01EB8202F86126
:10457000E946CCE900A0C9E9001290E67C150024C8
:104580000280FFFF000000300082FF7F0000003447
:1045900082FF7F0060150024007E00807E0080FF87
:1045A0000000003804FF7FBF04FF7F3F00FEFF468E
:1045B000002C00F0C982BBF1020FD8F8242000F0D3
:1045C000FA827969C7F8049002EB810E5FED0C5A0C
:1045D0008A00DCF808100EF104007A611A46DCF853
:1045E0000C303B61331DD7F810903D61FD69C7E980
:1045F00002CB8C46834636F92210D8ED0C7A06EEB3
:10460000101A33F9221006EE901A3EF92210B8EE75
:10461000C66A07EE101AF8EEE66A3BF92210B8EE09
:10462000C77A26EE256A66EEA56A27EE257A26EE7B
:10463000276A66EEA76A27EE277A07EE901A5108D6
:104640000232F8EEE77A0AEB8100944280ED006ACC
:1046500005EB810067EEA57AC0ED006A0CEB8100E6
:1046600009EB810180ED007A98ED0C7A67EE877A8C
:10467000C1ED007ABFD8D7F804903D69D7E902CBE5
:1046800060466208BB6949469847D8F82C307A6979
:10469000D8ED0D6A1A441FED3D7A1FED3D6A2B1DC2
:1046A000904602F1040A5FED3F5A0022A84ED9E974
:1046B00000EC51E0F4EEC67AF1EE10FAC0F2C782D7
:1046C00047F6FE7045F822000CEB0100D0ED007AB1
:1046D00066EEA77AF4EEC77AF1EE10FA4BD9F4EE53
:1046E000C67AF1EE10FAC0F2BA8247F6FE70BBF15C
:1046F000020F43F822002BD0D9F808000844D0ED6F
:10470000007A66EEA77AF4EEC77AF1EE10FA36D99F
:10471000F4EEC67AF1EE10FAC0F2CD8247F6FE70E2
:1047200048F82200D9F80C000144D1ED007A66EE79
:10473000A77AF4EEC77AF1EE10FA1ED9F4EEC67A33
:10474000F1EE10FAC0F2AF8247F6FE714AF822107D
:10475000023294427FF6B1AD51080EEB8100890020
:10476000D0ED007A66EEA77AF4EEC77AF1EE10FA91
:10477000A0D83046A6E73046B9E73146E6E73046EE
:10478000CEE7002C00F0E081BBF1020FD8F8243016
:1047900000F0E1817A69DCF8081003EB820EC7F8BB
:1047A00004909300DFED6B5A0EF1040000227B6150
:1047B000DCF80C303B61331DD7F810903D61FD698A
:1047C000C7E902CB8C46834656F82210D8ED0C7A06
:1047D00007EE101A53F82210B8EEC76A07EE101A47
:1047E0005EF82210F8EEC76A07EE101A26EE256A68
:1047F0005BF82210B8EEC77A66EEA56A26EE276A45
:1048000027EE257A66EEA76A27EE277A07EE901A3A
:1048100051080232F8EEE77A0AEB8100944280ED0B
:10482000006A05EB810067EEA57AC0ED006A0CEB2B
:10483000810009EB810180ED007A98ED0C7A67EE3A
:10484000877AC1ED007ABFD8D7F804903D69D7E9DF
:1048500002CB60466208BB6949469847D8F82C30BD
:104860007A69D8ED0D6A1A449FED3E7A9FED3E6A53
:10487000131D9246DFF8E4C00022FB612B1D364E6B
:10488000D9E9008E4EE0F4EEC67AF1EE10FAC0F2ED
:10489000FC81304645F822000EEB0100D0ED007A95
:1048A00066EEA77AF4EEC77AF1EE10FA49D9F4EE83
:1048B000C67AF1EE10FAC0F2EF813046BBF1020F7A
:1048C00043F822002AD0D9F808000844D0ED007A35
:1048D00066EEA77AF4EEC77AF1EE10FA35D9F4EE67
:1048E000C67AF1EE10FAC0F2C98130464AF82200C9
:1048F000D9F80C000144D1ED007A66EEA77AF4EE07
:10490000C77AF1EE10FA1ED9F4EEC67AF1EE10FA7B
:10491000C0F2AD813146F86940F82210023294426B
:104920007FF6CBAC510808EB81008900D0ED007A0E
:1049300066EEA77AF4EEC77AF1EE10FAA3D86046D5
:10494000A8E76046BAE76146E5E76046CEE700BF04
:104950000280FFFF000000300082FF7F007E0080A9
:104960000000003404FF7FBF04FF7F3F002C00F0F5
:10497000EB807A690021D8F82430C7F8109003EB57
:10498000820ED7F81C909300FD610EF104021FED1A
:104990000C6A7B61331D154656F821204808D8ED76
:1049A0000C6ABBF1020F82F40002A2F5000207EECE
:1049B000902A53F8212082F40002B8EEE77AA2F59B
:1049C000000227EE067A07EE902A0AEB8002F8EE44
:1049D000E77A27EE267A67EE867A82ED007A09EB8F
:1049E00080024FEA800067EEA67AC2ED007A27D0F7
:1049F0005EF8212082F40002A2F5000207EE902A60
:104A000055F8212082F40002B8EEE77AA2F5000200
:104A100027EE067A07EE902ADCF80820F8EEE77A0F
:104A2000024427EE267A67EE867A82ED007A98EDC8
:104A30000C7ADCF80C2067EE877A0244C2ED007A2B
:104A400002318C42A8D8D7F8109060466208BB6942
:104A50004946FD699847D8F82C307A69D8ED0D6A37
:104A60001A441FED407A1FED406A131D9246DFF88D
:104A7000C4C20022FB612B1DAB4ED9E9008E4EE073
:104A8000F4EEC67AF1EE10FAC0F2C580304645F871
:104A900022000EEB0100D0ED007A66EEA77AF4EE6C
:104AA000C77AF1EE10FA49D9F4EEC67AF1EE10FAAF
:104AB000C0F2BF803046BBF1020F43F822002AD07B
:104AC000D9F808000844D0ED007A66EEA77AF4EE33
:104AD000C77AF1EE10FA35D9F4EEC67AF1EE10FA93
:104AE000C0F2AE8030464AF82200D9F80C000144EA
:104AF000D1ED007A66EEA77AF4EEC77AF1EE10FAFD
:104B00001ED9F4EEC67AF1EE10FAC0F28B8031466F
:104B1000F86940F82210023294427FF6CEAB510879
:104B200008EB81008900D0ED007A66EEA77AF4EEFA
:104B3000C77AF1EE10FAA3D86046A8E76046BAE754
:104B40006146E5E76046CEE7224649466046BB69D6
:104B50009847FFF7B2BBC7F810B0002298ED0C6A77
:104B6000331DDFED726AD7F81CB0786956F8221051
:104B700007EE901A53F82210B8EEE77A07EE901A73
:104B800051080232F8EEE77A27EE267A0AEB810E18
:104B900094420BEB810167EEA67A27EE067A67EE68
:104BA000867A8EED007AC1ED007ADFD88300D7F8DF
:104BB00010B07B614DE61A46C7F810B098ED0C6A4C
:104BC000331DDFED5B6AD7F81CB0786936F9221027
:104BD00007EE101A33F9221007EE901AB8EEC77AD2
:104BE00051080232F8EEE77A27EE267A0AEB810EB8
:104BF00094420BEB810167EEA67A27EE067A67EE08
:104C0000867A8EED007AC1ED007ADFD88300D7F87E
:104C100010B07B6134E5F0EE675AFEEEE45A15EE13
:104C2000900A34E7F0EE675AFEEEE45A15EE901A59
:104C30006EE7F0EE675AFEEEE45A15EE900A3AE798
:104C4000F0EE675AFEEEE45A15EE900A4BE767EE77
:104C5000A57AFDEEE77A17EE900A00B232E567EE2C
:104C6000A57AFDEEE77A17EE900A00B23FE5F0EE86
:104C7000675AFEEEE05A15EE901A4CE6F0EE675ACF
:104C8000FEEEE05A15EE900A30E6F0EE675AFEEEC0
:104C9000E05A15EE900AFDE5F0EE675AFEEEE05A96
:104CA00015EE900A0AE667EEA57AFDEEE77A17EEB2
:104CB000901A09B24AE567EEA57AFDEEE77A17EE9B
:104CC000900A00B22CE5F0EE675AFEEEE45A15EEBB
:104CD000902A1FE467EEA57AFDEEE77A17EE902A98
:104CE00012B2FFF731BBF0EE675AFEEEE45A15EE52
:104CF000902AFFF7FDBBF0EE675AFEEEE05A15EE84
:104D0000902AFFF79BBBF0EE675AFEEEE05A15EED5
:104D1000902AFFF780BB67EEA57AFDEEE77A17EEE3
:104D2000902A12B2FFF724BB82FF7F000000003000
:104D3000000000387E0080FF30B5184C154685B065
:104D4000046004F1080EEC460FC98EE80F00D4EDA4
:104D5000047AF5EEC07A8CE80F00F1EE10FA1ADD55
:104D6000B7EE006A94ED057A27EE277AC6EE276A39
:104D700084ED0D7AC4ED0C6A6DB1204640F8185FE1
:104D800001F0F6FC064903690020064A2162A2628E
:104D9000E36005B030BD012005B030BD60150024D2
:104DA000705C0030703C003000680830704700BF15
:104DB000B1F5807F03680A4628BF4FF48072B1F5D1
:104DC000807F9A6094BF00200120704700681830EF
:104DD00001F02EBD70B504688AB0A369E160CBB163
:104DE00004F11805284601F0C3FC8446EE46E66847
:104DF000BCE80F00AEE80F00BCE80F00AEE80F0003
:104E00009CE803008EE8030069462846049601F0FA
:104E1000B7FBF8B9E069D8B104F11C05284601F0E8
:104E2000A7FC8446EE46E468BCE80F00AEE80F003D
:104E3000BCE80F00AEE80F009CE803008EE803001A
:104E400069462846049401F09BFB003818BF0120F6
:104E50000AB070BD01200AB070BD00BF30B5046853
:104E600083B00D46E3694BB1A3680020E26A616A32
:104E70009B00009004F11C0001F07CFCA368074833
:104E8000A26A9B00216A009004F1180001F072FCF4
:104E90000020C4E9005003B030BD00BF7D410008D0
:104EA00010B4074B4FF07E513024002203201961CB
:104EB0009C60D8605DF8044B5961C3E906227047D5
:104EC0006015002430B585B004460025ADF80C10FF
:104ED000ADF80820ADF8043002F0E0FCBDF80C207D
:104EE0004FF48073206004F118002283BDF808207D
:104EF0006383E383A283257100F00EFB04F11C00A1
:104F000000F00AFB9FED060A019904F1080000F089
:104F10001BF94FF6FF736562238405B030BD00BFF7
:104F200000000000F8B5044602F0B8FC0026236833
:104F30002671834205D104F10800BDE8F84000F075
:104F40001DB9012794F82050206004F11800BD40DD
:104F5000277100F0BDFB6DB2284394F82150BD408D
:104F600084F8200004F11C0000F0B2FB94F820301B
:104F70006DB2666203F003032843022BC0B284F8CB
:104F8000210009D000F003000228D4D1002BD2D197
:104F90004FF0FF336362CEE78307CCD16762CAE785
:104FA000704700BFF8B5134F3C687F2C07D98023AA
:104FB000114A42F224411C463B60A2F87E100F4D7C
:104FC0002B68012B0AD90C4E0D4D2246314628463E
:104FD00000F08AF90028F8D13860F8BD2246064969
:104FE000074800F081F90028F7D12B6838600133B9
:104FF0002B60F8BD9C150024A015002498150024F2
:105000002016002430B4154C2168F1B14B1E144D0C
:10501000E81810F801298C4619460A2A01D00D2AF1
:1050200002D14BB1013BF4E70CF102037F2B10D905
:105030008023236030BC70470122022323600D20AF
:105040000A236854AB5430BC704701220223044D3C
:10505000F4E70CF101026146F0E700BF9C15002463
:10506000A015002410B5094C02460B4608482168DB
:105070000844C1F1800110F009FA23681844206047
:10508000FFF7C0FFFFF78EFF10BD00BF9C15002487
:10509000A01500240FB400B583B004A951F8040B87
:1050A0000191FFF7DFFF03B05DF804EB04B0704738
:1050B000064A0749074808B50FF00EFD034A0449A0
:1050C0000548BDE808400FF007BD00BF0000002400
:1050D000A14F00082016002424160024F0B51D4618
:1050E00083B004461646A5F101059DF82070ADF881
:1050F000041002F0D3FBB5FA85F50023BDF80420B7
:10510000012F4FEA551566712060E572E280237128
:10511000A372237209D0022F0FD00123A01D637246
:1051200003B0BDE8F04000F0F7B90223A01D6372A0
:1051300003B0BDE8F04000F0EFB9A01D637203B00A
:10514000BDE8F04000F0E8B970B5044682B0C1F3A4
:105150000726CDB2ADF8041002F0A0FB4FF4807228
:105160004FF001232060A01DA571A280E671A3600D
:1051700002B0BDE8704000F0CFB900BF38B50446BA
:1051800002F08CFB002223682271834210D001229E
:10519000A57AE37A954020602271A01D6DB243B9D3
:1051A00000F096FA40B22843C0B27F28A0720AD01D
:1051B00038BD00F08DFAB0FA80F040092843C0B243
:1051C0007F28A072F4D102F069FB07EE900AF8EE96
:1051D000677AC4ED037A38BD704700BF012910B566
:1051E00006D0022915D051B1BDE8104006F0C6BA6C
:1051F0000A46344834490BF07DFBE8B1FEE7334BF7
:105200000A46334C334934481C600BF073FB68B1D9
:10521000FEE701222C492B480BF06CFB00B1FEE7A6
:105220002E4928480BF088FBC0B1FEE72B492A48DD
:105230000BF082FB60B1FEE7284922480BF07CFBB3
:1052400000B1FEE726491F480BF004FB08B3FEE758
:10525000244921480BF0FEFAA8B1FEE7204919487D
:105260000BF0F8FA00B1FEE716480BF07BFB0246A4
:1052700040B9164B164C174917481C600BF03AFB07
:1052800068B1FEE7FEE714480BF06CFB0028ABD0DA
:10529000FEE70C480BF066FB0028A5D0FEE70F499F
:1052A0000D480BF049FB00B1FEE70E490A480BF030
:1052B000D1FA00B1FEE708480BF054FB002893D068
:1052C000FEE700BFC41800244C020024601B002429
:1052D000D95100083002002428160024B40200240A
:1052E0001002002400020024084691B208B502F022
:1052F000B9FD003818BF012008BD00BF014805F006
:105300001BBD00BF304E0024014805F015BD00BF95
:10531000304E0024014805F00FBD00BF304E002480
:1053200010B592B0ADF804100180C9B2149C0B29DD
:10533000C460C0E901233FD090F801C0BCF10F0F59
:105340003AD8022A3FD0032A02D0012A00D00022F4
:105350000E92012B02D0022B18BF0023022C0F93B8
:105360002CD0032C2AD0012C28D000230A291093FA
:1053700027D85C4A02EB812202610A2914D8DFE8AF
:1053800001F0A39587796B5D4F4133250600564B9D
:10539000D3F8E01041F48061C3F8E010D3F8E030B6
:1053A00003F480630C930C9B01230DA9104603FAB0
:1053B0000CF30D9304F000FB12B010BD0A291094F9
:1053C000D7D90022D8E711220E92C2E7464BD3F874
:1053D000E01041F40071C3F8E010D3F8E03003F4BA
:1053E00000730B930B9BDFE73F4BD3F8E01041F4C6
:1053F0008071C3F8E010D3F8E03003F480730A93AF
:105400000A9BD1E7384BD3F8E01041F08001C3F894
:10541000E010D3F8E03003F080030993099BC3E761
:10542000314BD3F8E01041F04001C3F8E010D3F85D
:10543000E03003F040030893089BB5E72A4BD3F80C
:10544000E01041F02001C3F8E010D3F8E03003F0A1
:1054500020030793079BA7E7234BD3F8E01041F005
:105460001001C3F8E010D3F8E03003F01003069306
:10547000069B99E71C4BD3F8E01041F00801C3F8F4
:10548000E010D3F8E03003F008030593059B8BE7A9
:10549000154BD3F8E01041F00401C3F8E010D3F845
:1054A000E03003F004030493049B7DE70E4BD3F834
:1054B000E01041F00201C3F8E010D3F8E03003F04F
:1054C00002030393039B6FE7074BD3F8E01041F00F
:1054D0000101C3F8E010D3F8E03003F001030293B8
:1054E000029B61E7000002580044025808B5012100
:1054F00043780069994089B204F066FC003818BF0F
:10550000012008BD01230A464178006903FA01F130
:1055100089B204F05FBC00BF8378022B30B504462B
:105520008FB037D0032B33D0012B31D000230A9317
:10553000E378012B2AD0022B28D000230B930023E1
:1055400020460C9303F070F80546204603F074F8EB
:1055500023780990082B13D8DFE803F01F32455851
:105560006B7E91A40500594BD3F8E02042F4807281
:10557000C3F8E020D3F8E03003F480730893089B6D
:1055800009A9284604F018FA0FB030BD0B93D6E7EE
:105590000A93CDE711230A93CAE74C4B09A9284681
:1055A000D3F8E02042F00102C3F8E020D3F8E03065
:1055B00003F001030093009B04F0FEF90FB030BD2F
:1055C000424B09A92846D3F8E02042F00202C3F872
:1055D000E020D3F8E03003F002030193019B04F0D4
:1055E000EBF90FB030BD394B09A92846D3F8E020BC
:1055F00042F00402C3F8E020D3F8E03003F00403E3
:105600000293029B04F0D8F90FB030BD2F4B09A9CB
:105610002846D3F8E02042F00802C3F8E020D3F88F
:10562000E03003F008030393039B04F0C5F90FB0C7
:1056300030BD264B09A92846D3F8E02042F01002DD
:10564000C3F8E020D3F8E03003F010030493049B88
:1056500004F0B2F90FB030BD1C4B09A92846D3F8AD
:10566000E02042F02002C3F8E020D3F8E03003F05D
:1056700020030593059B04F09FF90FB030BD134B39
:1056800009A92846D3F8E02042F04002C3F8E02000
:10569000D3F8E03003F040030693069B04F08CF946
:1056A0000FB030BD094B09A92846D3F8E02042F0DD
:1056B0008002C3F8E020D3F8E03003F080030793C2
:1056C000079B04F079F90FB030BD00BF00440258C9
:1056D00038B5054602F0A8FF0446284602F0ACFFA4
:1056E00001462046BDE8384004F06EBB70B5064662
:1056F0000D4602F099FF0446304602F09DFF2A1E37
:105700000146204618BF0122BDE8704004F062BB8C
:105710000023122270B586B0CDE9022304930368FA
:10572000032B01D804230593061D841D304602F087
:105730007BFF0546304602F07FFF034601A928465D
:10574000019304F039F9204602F06EFF034620462B
:105750001C4602F071FF01A903462046019304F0A4
:105760002BF906B070BD00BF634A0368934210B5C1
:105770008CB028D0614A934258D0614A934200F0DD
:105780009480604A934201D00CB010BD5E4C5F48DB
:10579000D4F8E03043F00203C4F8E030D4F8E0304D
:1057A00003F002030A930A9BFFF7B2FFD4F8F43028
:1057B00043F08003C4F8F430D4F8F43003F08003ED
:1057C0000B930B9BE0E7504C5148D4F8E03043F08A
:1057D0000203C4F8E030D4F8E03003F00203019390
:1057E000019BFFF795FFD4F8E83000221F2043F417
:1057F00000131146C4F8E830D4F8E83003F400137D
:105800000293029BD4F8D83043F00103C4F8D83097
:10581000D4F8D83003F001030393039B03F050F84E
:105820001F200CB0BDE8104003F088B8364C394852
:10583000D4F8E03043F08003C4F8E030D4F8E0302E
:1058400003F080030493049BD4F8E03043F0020398
:10585000C4F8E030D4F8E03003F002030593059B70
:10586000FFF756FFD4F8E8300022212043F48003EC
:105870001146C4F8E830D4F8E83003F48003069306
:10588000069BD4F8D83043F00103C4F8D830D4F8DC
:10589000D83003F001030793079B03F011F8212090
:1058A0000CB0BDE8104003F049B81B48FFF730FFCB
:1058B000154B00224820D3F8E840114644F4000478
:1058C000C3F8E840D3F8E84004F400040894089CC6
:1058D000D3F8D84044F00104C3F8D840D3F8D83006
:1058E00003F001030993099B02F0EAFF48200CB082
:1058F000BDE8104003F022B80054004000580040BA
:10590000005C0040001C005800440258F01D0024B8
:10591000681B0024401C0024181D00242DE9F043BE
:105920001A4B87B000254FF010099E46EC46184BE5
:10593000FF22E04667461A700EF118060EF1300499
:10594000CDE90055CDE90255ADF80090BCE80F0057
:10595000CDE90455AEE80F009CE803000095ADF8D2
:1059600000908EE80300B8E80F000FC69CE8030023
:105970000095ADF8009086E803000FCF0FC49CE8B7
:10598000030084E8030007B0BDE8F0838000002432
:10599000651B002410B5EFF3108472B6084B1A781B
:1059A000120602D504B962B610BD1B78D82205488C
:1059B0005BB202FB0300143003F0ACFCF2E700BF63
:1059C000651B0024681B0024014805F09BB800BF3C
:1059D000F41B0024014805F095B800BFCC1C00243E
:1059E000014805F08FB800BFA41D00242DE9F04345
:1059F0000F68D8243F4D85B007FB04F4032F05EB57
:105A00000403036040DCCB680E46012B3CD84DD02C
:105A10004FF0D808B646DFF8FC9008FB0758BEE800
:105A20000F00C446ACE80F00DEF800300DF1100E98
:105A3000CCF80030D8F808C099E80F000EE90F0044
:105A40000EEB8703BCF1010F53F8103CC8F88C3003
:105A500031D0BCF1020F42D0BCF1000F35D0317C07
:105A60008C34D823002201202C4403FB0753490027
:105A7000C3E92602C3F894102046C3E92822C3E9EB
:105A80002A2204F031FE18B1012005B0BDE8F083F0
:105A90000146204605F042F80028F5D1014620468F
:105AA00005F066F8003818BF0120EEE70B7C103BCC
:105AB000672BADD9E8E702F099F80F4B98420CBF7D
:105AC0000E4B0F4BC8F89030C9E702F08FF80A4B25
:105AD00098420CBF0B4B0C4BC8F89030BFE702F05C
